:10022900EF6013E4FEEE600B7DFFED60031D80FAC5
:060239001E80F21F80EAA6
:01023F00229C
:10016F00C200E528D394075006E53D94074002D21C
:10017F0000752502E525C395265028743C2525F8E2
:10018F00E6B53D047F0180027F0074272525F8E640
:10019F00B528047E0180027E00EE5F6002D200056A
:0501AF002580D1A20033
:0101B4002228
:10011E0030B64D30B411E4F522E521640160057569
:10012E0021FF800375210130B210E4F522E521F4A0
:10013E00600575210180037521FF30B310E4F521B0
:10014E00E522F4600575220180037522FF30B1109F
:10015E00E4F521E522640160047522FF2275220177
:01016E00226E
:1001F600BF07037F8022BF06037F4022BF05037F20
:100206002022BF04037F1022BF03037F0822BF0200
:10021600037F0422BF01037F0222EF70037F0122C6
:030226007F002234
:1001B500AC07AF041CEF6038E4F525E525C39415BD
:1001C50050F074272525F8E6FF1201F68FA0743C40
:1001D5002525F8E6FF1201F6C374FF9FF59012017D
:1001E5001E7F32120229E4F5A07590FF052580CB0C
:0101F50022E7
:10000300752447E4F5807590FFF5A0F5B0752503D9
:1000130074272525F876640525E525B415F275259D
:1000230003743C2525F876640525E525B415F2759A
:100033002704753C04752603752801E4F53DF5296D
:10004300F53EF521F52220B6077F011201B580F6B2
:10005300AF241201B512016F500575244780AEAF6E
:1000630022EF3395E0FEE53D2FFFE43EFEE53CB590
:100073000708E4B506047F0180027F00E521FD3314
:1000830095E0FCE5282DFDE43CFCE527B50508E4F7
:10009300B504047E0180027E00EE5F60430526E521
:1000A300266415702B75260374F62524F52475250F
:1000B3000374272525F876640525E525B415F2751F
:1000C3002503743C2525F876640525E525B415F24A
:1000D30074252526F8E6F527743A2526F8E6F53C37
:1000E300E52614F525E525D394014020742625251E
:1000F300F8E6FF74272525F8A607743B2525F8E6BF
:10010300FF743C2525F8A607152580D9E529252167
:0B011300F528E53E2522F53D020053D3
:03000000020240B9
:0C024000787FE4F6D8FD758150020003C1
:00000001FF
