:100800000100010001003FF82108210821083FF8FC
:100810002108210821083FF8210A0102010200FEF7
:10082000000000007FF8001000200040018001005F
:10083000FFFE0100010001000100010001000500B0
:1008400002000000010001007FFC01001FF0000019
:100850007FFE40029FF400001FF010101FF00820E0
:100860000440FFFE000020801080009C47E02080B4
:1008700008841084607C21000100FFFE05400920EF
:100880003118C10601000000010000803FFE2080F9
:100890002FF820883FFE20882FF8288024C422A823
:1008A000449048889286010000000000000000008B
:1008B0000000000000000000000000000000000038
:1008C0000000000000000000000000000000000028
:1008D0000000000000000000000000000000000018
:1008E0000000000000000000000000000000000008
:1008F00000000000000000000000000000000000F8
:1009000000000000000000000000000000000000E7
:100910000100010001003FF82108210821083FF8EB
:100920002108210821083FF8210A0102010200FEE6
:10093000000000007FF8001000200040018001004E
:10094000FFFE01000100010001000100010005009F
:1009500002000000010001007FFC01001FF0000008
:100960007FFE40029FF400001FF010101FF00820CF
:100970000440FFFE000020801080009C47E02080A3
:1009800008841084607C21000100FFFE05400920DE
:100990003118C10601000000010000803FFE2080E8
:1009A0002FF820883FFE20882FF8288024C422A812
:1009B000449048889286010000000000000000007A
:1009C0000000000000000000000000000000000027
:1009D0000000000000000000000000000000000017
:1009E0000000000000000000000000000000000007
:1009F00000000000000000000000000000000000F7
:100A000000000000000000000000000000000000E6
:100A100000000000000000000000000000000000D6
:100D030002080001020A000020220C7FFFBFFFDF60
:100D1300FFEFFFF7FFFBFFFDFFFEFFFF7FFFBFFFBF
:0D0D2300DFFFEFFFF7FFFBFFFDFFFEFFFF0F
:100A2000E4F52EF52FD2AFD2A8D2AAD288D28A75F9
:100A30003000753109E5311531AE30700215304E98
:100A40006025E50B450A7009AF2FAE2E120C6080B1
:100A50000DE50945087007AF2FAE2E120BED7F0A8A
:100A60007E00120DE380CEE509640145087006E5BD
:100A70000B450A600EE50B6401450A7013E5094554
:100A800008700D7402252FF52FE4352EF52E809F6A
:100A9000E509B4FF0BE508B4FF06E50B450A601352
:100AA000E50BF47003E50AF47085E5094508600379
:100AB000020A2F74FE252FF52F74FF352EF52ED345
:100AC000E52F940EE52E94015003020A2F752E0196
:060AD000752F0E020A2F33
:0B0D31003535F583E493FF3395E0FEB9
:100D3C00E4FDC2A0EF3392A1EF25E0FFEE33FED22B
:0B0D4C00A00DBD08EDC2A20000D2A265
:010D57002279
:100DA400E4FBFAC2A3EE3392A4EF25E0FFEE33FE98
:100DB400D2A30BBB00010AEB64104A70E6C2A50083
:020DC400D2A5B6
:010DC600220A
:100DE300D3EF9400EE9400400DE4FD0DBD7CFCEFC9
:060DF3001F70ED1E80EAF6
:010DF90022D7
:040C60008E328F330E
:100C6400E4F534E53425E0240CF8E6FE08E6FF124A
:100C74000DA4E53475F002A4FFAEF02533FDE53292
:100C84003EFCF5358D36D3ED940EEC6480948140B2
:100C940013E5332FFFE5323EFE7C017D10120B621B
:100CA4008C358D3674002536F5827408120D317436
:100CB400012536F5827408120D317F017E00120D74
:0A0CC400E30534E534C394104099B1
:010CCE002203
:100DC700E4FDC2A0EE3392A1EF25E0FFEE33FED2A1
:0B0DD700A00DBD10EDC2A20000D2A2D2
:010DE20022EE
:100CCF003535F583E493FF3395E0FEEFF4FFEEF453
:010CDF00FE16
:100CE000E4FBFAC2A3EF3392A4EF25E0FFEE33FE5C
:100CF000D2A30BBB00010AEB64084A70E6C2A50050
:020D0000D2A57A
:010D020022CE
:040BED008E328F3382
:100BF100E4F534E53425E0240CF8E6FE08E6F4FFDC
:100C0100EEF4FE120DC7E53475F002A4FFAEF02537
:100C110033FDE5323EFCF5358D36D3ED940EEC64B3
:100C21008094814013E5332FFFE5323EFE7C017D48
:100C310010120B628C358D3674102536F5827409CD
:100C4100120CCF74112536F5827409120CCF7F0175
:0E0C51007E00120DE30534E534C39410409587
:010C5F002272
:03000300020D5893
:100D5800C0E0C0D0E509450870067508FF7509FFB1
:100D6800750A00750B00C3E49509F509E49508F5C3
:060D780008D0D0D0E032EB
:03001300020D7E5D
:100D7E00C0E0C0D0E50B450A7006750AFF750BFF83
:100D8E00750800750900C3E4950BF50BE4950AF59B
:060D9E000AD0D0D0E032C3
:03000000020AD61B
:0C0AD600787FE4F6D8FD758136020B1D18
:100B6200C2D5EC30E709B2D5E4C39DFDE49CFCEEAE
:100B720030E715B2D5E4C39FFFE49EFE120B98C383
:100B8200E49DFDE49CFC8003120B9830D507C3E47E
:060B92009FFFE49EFE221D
:100AE200020A20E493A3F8E493A34003F68001F200
:100AF20008DFF48029E493A3F85407240CC8C33315
:100B0200C4540F4420C8834004F456800146F6DFE3
:100B1200E4800B0102040810204080900D03E47E63
:100B2200019360BCA3FF543F30E509541FFEE493D8
:100B3200A360010ECF54C025E060A840B8E493A39F
:100B4200FAE493A3F8E493A3C8C582C8CAC583CACA
:100B5200F0A3C8C582C8CAC583CADFE9DEE780BE82
:010D300000C2
:100B9800BC000BBE0029EF8DF084FFADF022E4CC41
:100BA800F875F008EF2FFFEE33FEEC33FCEE9DEC0A
:100BB800984005FCEE9DFE0FD5F0E9E4CEFD22ED50
:100BC800F8F5F0EE8420D21CFEADF075F008EF2F9A
:100BD800FFED33FD4007985006D5F0F222C398FD8B
:050BE8000FD5F0EA2228
:00000001FF
