:03000000020006F5
:0C000600787FE4F6D8FD75811102023D00
:10001E00FC8EFCEDFD43FD6AFDB3FDF3FE2DFE47A8
:10002E00FE76FEA1FEC7FED9FEF9FF1654325288A7
:10003E006484585412223422122C04543252867282
:10004E0064845854223246721C648C7462728862C4
:10005E007282625232122F54325286726484585413
:10006E00223246721C648C74627288627282625290
:10007E0032122F543252867264845854223246728F
:10008E001CFF122234847454384232224234847259
:10009E008294A80832312132523231213262323109
:1000AE0021328271817151322232312132523231FA
:1000BE0021326232312132838271720263A1A262D5
:1000CE00928252315163516351635162827C02615B
:1000DE0071827162A2717661718271625231366182
:1000EE0071827162A37362534263838391916171D2
:1000FE00827162A271766171827162523136617162
:10010E00827162A373625342828802749389FF14D0
:10011E00142434141424341434445834445853617D
:10012E005341341453615341341414541814541855
:01013E00FFC1
:1002E900D2AF758910E4F58DF58BD2AB750901F59F
:0702F9000AF50B7508142241
:1002A000EFD394004025E508FD7C00D3ED9400ECED
:1002B000940040147B717A02EB1B70011AEB4A70B8
:0B02C000F7ED1D70E61C80E31F80D5E9
:0102CB002210
:10013F008B0F8A108911E508C394015003750801CC
:10014F00E508D3943C400375083CE50970030201B0
:10015F00E8E509B4020AE4F50AF50B75090180799F
:10016F00AB0FAA10A911850B82850A83120273FFA8
:10017F00B4FF07E4F50AF50B805FEFC4540F60344A
:10018F00AB0FAA10A911850B82850A83120273C4C3
:10019F00540FFF25E0241CF582E43400F583E4932B
:1001AF00F50DEF25E0241DF582E43400F583E4938B
:1001BF00F50ED28EAB0FAA10A911850B82850A837B
:1001CF00120273540FFF1202A0C28E050BE50B60D3
:0C01DF0003020159050A020159C28E22D8
:03001B00020012CE
:09001200850D8D850E8BB2B7320D
:0402CC007F017E0030
:1002D000D3EF9400EE9400400F7D267C82DCFEDD9F
:0802E000FAEF1F70EB1E80E82D
:0102E80022F3
:030003000201EB0C
:1001EB00C0E0C0D075D000C004C005C006C007E594
:1001FB000B450A600375090220A00C1202CC20A04B
:10020B000630A0FD750C0120A10C1202CC20A1061A
:10021B0030A1FD750C0220A20C1202CC20A20630DC
:10022B00A2FD750C03D007D006D005D004D0D0D0DA
:02023B00E032AF
:10023D001202E9D288D2A8D2AFE50CB401087BFF37
:10024D007A00793A800BE50CB4020B7BFF7A0079CA
:10025D009012013F80E3E50CB403DE7BFF7A017958
:06026D001D12013F80D3C9
:10027300BB010CE58229F582E5833AF583E0225040
:1002830006E92582F8E622BBFE06E92582F8E2228A
:0D029300E58229F582E5833AF583E49322A4
:00000001FF
